S00E00005445535430312E7372656375
S315000000005819FE1FE52F0000952A0000E12F000079
S31500000010E12F0000E12F0000E12F000000000000AA
S31500000020000000000000000000000000E12F0000BA
S31500000030E12F000000000000E12F0000E12F00008A
S31500000040550F0000550F0000FFFFFFFFFFFFFFFFEA
S31500000050FFFFFFFFFFFFFFFFFFFFFFFFFFFFFFFFAA
S31500000060FFFFFFFFFFFFFFFFFFFFFFFFFFFFFFFF9A
S31500000070FFFFFFFFFFFFFFFFFFFFFFFFFFFFFFFF8A
S31500000080FFFFFFFFFFFFFFFFFFFFFFFFFFFFFFFF7A
S31500000400FFFFFFFFFFFDFFFFFFFFFFFFFFFFFFFFF8
S31500000410FFFFFFFFFFFFFFFFFFFFFFFFFFFFFFFFE6
S31500000420FFFFFFFFFFFFFFFFFFFFFFFFFFFFFFFFD6
S31500000430FFFFFFFFFFFFFFFFFFFFFFFFFFFFFFFFC6
S31500000440FFFFFFFFFFFFFFFFFFFFFFFFFFFFFFFFB6
S31500000450FFFFFFFFFFFFFFFFFFFFFFFFFFFFFFFFA6
S31500000460FFFFFFFFFFFFFFFFFFFFFFFFFFFFFFFF96
S31500000470FFFFFFFFFFFFFFFFFFFFFFFFFFFFFFFF86
S31500000480FFFFFFFFFFFFFFFFFFFFFFFFFFFFFFFF76
S31500000490FFFFFFFFFFFFFFFFFFFFFFFFFFFFFFFF66
S315000004A0FFFFFFFFFFFFFFFFFFFFFFFFFFFFFFFF56
S315000004B0FFFFFFFFFFFFFFFFFFFFFFFFFFFFFFFF46
S315000004C0FFFFFFFFFFFFFFFFFFFFFFFFFFFFFFFF36
S315000004D0FFFFFFFFFFFFFFFFFFFFFFFFFFFFFFFF26
S315000004E0FFFFFFFFFFFFFFFFFFFFFFFFFFFFFFFF16
S315000004F0FFFFFFFFFFFFFFFFFFFFFFFFFFFFFFFF06
S315000005003001FE1F0C0006583401FE1F0D00066068
S3150000051020000000200001002F0000002F00010035
S315000005200C00010011000000300000003000010046
S31500000530240000002400010024000200240003001F
S31500000540240004002400050013000000170000002A
S315000005502300000021000000210001000700000028
S31500000560070001000700020007000300070004005F
S31500000570070005000700060007000700120000003C
S3150000058044000000080000000B00000041000000CD
S31500000590400000004000010004000000430000008D
S315000005A02B0000002B000A002B000B002B000C0078
S315000005B02B000D002B0001002B0002002B00030076
S315000005C02B0004002B0005002B0006002B00070063
S315000005D02B0008002B0009000600000006000A0098
S315000005E006000B0006000C0006000D0006000E00BB
S315000005F006000F00060001000600020006000300C8
S3150000060006000400060005000600060006000700B6
S31500000610060008000600090015000000150001008C
S3150000062015000200310000002A000000450000000D
S315000006301000000003010000030000000300010099
S315000006400F0000000D0000002D0000004200000019
S315000006502C0000002C0001002C0002002C000300DE
S3150000066032000000280000001800000014000000FE
S31500000670140001001400020014000300140004001A
S3150000068014000500140006001400070014000800FA
S3150000069014000900340000003400010016000000B8
S315000006A0160001003500000036000000360001008B
S315000006B02200000033000000330100002900000082
S315000006C010B5054C237833B9044B13B10448AFF386
S315000006D000800123237010BDB400FE1F000000003F
S315000006E0A03D0000084B10B51BB108480849AFF300
S315000006F000800848036803B910BD074B002BFBD0E8
S31500000700BDE81040184700BF00000000A03D0000F3
S31500000710B800FE1F0C00FE1F0000000070B4104C55
S315000007202368020A9A4216D26568C0B200F1100622
S31500000730012355F8225003FA06F62E420BD069B172
S3150000074000EB0210A36853F82030C3F340030020E7
S315000007500B7070BC7047032070BC70471846FBE7EF
S315000007607C00FE1F084B1A68000A904201D3032042
S31500000770704731B1DA684301043200209B580B8080
S3150000078070470120704700BF7C00FE1F084B1A68A7
S31500000790000A904201D30320704739B1DA68430159
S315000007A0043200209B581B0C0B80704701207047B9
S315000007B07C00FE1F144A1368F0B4040A9C421DD242
S315000007C05768C5B205F11006012357F8244003FA0D
S315000007D006F6264212D0A1B1D468000A04344001BC
S315000007E003FA05F2005992B202EA1040904213BF92
S315000007F0002000200B700870F0BC70470320F0BC8E
S3150000080070471846FBE700BF7C00FE1F0C4B10B478
S315000008101C68000AA04200D21AB903205DF8044BF6
S315000008207047DB685DF8044B083303EB401022EA9F
S315000008300103114041EA034141600020704700BFB7
S315000008407C00FE1F154BF0B41C68020AA2420AD2B5
S315000008505E68C7B207F11005012456F8222004FA93
S3150000086005F5154202D10320F0BC70470129FAD8DC
S31500000870DB6800F47F4003F1080303EBD00008D0E7
S315000008804368BC4043EA0444240C2404446000202A
S31500000890EAE74468B9400C43A4B2F7E77C00FE1FC0
S315000008A040B101230621022201704370C370827099
S315000008B00020704701207047012901D903207047A5
S315000008C0114A1368F0B4040A9C4216D25768C5B29E
S315000008D005F11006012357F8244003FA06F62642CE
S315000008E00BD000F47F40AB4051B91B04D268C0085E
S315000008F0083219438150002000E00320F0BC704705
S3150000090099B20023F2E700BF7C00FE1F012901D93E
S31500000910032070472C4BF0B51C68020AA2424ED247
S315000009205D68C0B200F11006012455F82250B440AB
S315000009302C4244D000EB02109C681D6954F820300C
S3150000094000293ED043F00401204E0E40EFF31087FD
S31500000950012383F310881E4B1A8892B222B94FF0F6
S31500000960400EEA7085F803E01A88013292B21A80C6
S3150000097087F31088CF0354F8202007D5154F22F4AB
S3150000098080320F4044F8202044F8207044F820605C
S31500000990EFF31081012282F310881A880C4892B274
S315000009A01AB10288013A92B202801B889BB213B92F
S315000009B08022EB70EA7081F310880020F0BD0320DE
S315000009C0F0BD23F00401BFE77C00FE1FD5FC011F2C
S315000009D0D000FE1FD5FC001F0AB9032070470B4B41
S315000009E010B41C68000AA04203D303205DF8044B30
S315000009F07047DB6822EA0104400108330A4042EAF4
S31500000A000442C2505DF8044B002070477C00FE1F74
S31500000A100AB9032070470D4B70B41C68000AA04247
S31500000A2002D3032070BC70474001DD682E582B5856
S31500000A3002EA01043443A4B261EA02021B0C22401A
S31500000A401B041A432A50002070BC70477C00FE1F0E
S31500000A502DE9F041002839D009681E4D002701EB29
S31500000A60C000B8464FF0010E8C88002335F81320DD
S31500000A70A24218D00133032BF8D108318142F3D1B9
S31500000A80FF43FFB2012002F07BFA134A92F8BB340F
S31500000A9048EA030808EA070782F8BB740120BDE8A4
S31500000AA0F04102F03DBA0A6802F0B852B2F1807F16
S31500000AB005D00EFA03F647EA0602D7B2DAE70EFACF
S31500000AC003F248EA02085FFA88F8D3E78046FF2770
S31500000AD0D8E700BFC433000000E0014070B582B023
S31500000AE002AB002403F8044D054618460E4601F0F5
S31500000AF0B1FF9DF80430DB0702D4062002B070BDBA
S31500000B00202D02D9032002B070BD012EFAD8084B61
S31500000B101A69137805D02B4303F03003204613706F
S31500000B20ECE703F0300323EA050520461570E5E7F8
S31500000B307C00FE1F002867D02DE9F84F4368002B84
S31500000B405FD00146804631F8040BFFF781FFB8F805
S31500000B500030002B52D02D4CDFF8B4E0A146002225
S31500000B6001204FF0400B4FF0800AD8F80430DEF831
S31500000B70107053F83260DEF8085003EBC203998810
S31500000B800B0AC9B201EB0313EFF3108C80F3108844
S31500000B90218889B211B9F97087F803B0218801312B
S31500000BA089B221808CF3108816F4803F55F8231003
S31500000BB007D021F4803126F4803C45F8231045F80F
S31500000BC023C045F82360EFF3108180F31088238853
S31500000BD09BB22BB1B9F80030013B9BB2A9F80030AB
S31500000BE023889BB213B9FB7087F803A081F31088A2
S31500000BF00132B8F8003092B29342B6D80020BDE870
S31500000C00F88F0120BDE8F88F01207047D000FE1F45
S31500000C107C00FE1F002832D04368002B2FD0F0B591
S31500000C2087B006AC002309210193164A04F8141D67
S31500000C30154ED7680293054603930493059302A9BC
S31500000C402046B8474FF00A0C029ABDF80C308DF8D2
S31500000C5004C002A9F2602046059A72603360B84764
S31500000C600122029B8DF8052002A92046B360B847F1
S31500000C70029B33612846FFF75DFF07B0F0BD0120F8
S31500000C80704700BF783400007C00FE1F2DE9F0415C
S31500000C90304C2268050A954284B003460CD262683D
S31500000CA0C6B20F464FF0010806F1100152F8252092
S31500000CB008FA01F1114203D1032004B0BDE8F08126
S31500000CC004A902AA41F80C2D4046ADF80C30029753
S31500000CD0ADF8008006EB0515FFF7BAFE2069A2689D
S31500000CE0EFF3108488F310881B490B889BB213B965
S31500000CF04026C370C6700B8801339BB20B8084F309
S31500000D001088FC0352F8253007D523F4803327F4E6
S31500000D10803442F8253042F8254042F82570EFF33A
S31500000D201082012383F310880B880B4C9BB25BB9AE
S31500000D300B889BB213B98021C370C17082F31088EF
S31500000D40002004B0BDE8F0812388013B9BB22380DC
S31500000D50EEE700BF7C00FE1FD000FE1F98B10B4BD4
S31500000D6002689A4201D00720704710B44468427C5A
S31500000D70A35C01F0030123F003031943A1540020EF
S31500000D805DF8044B70470120704700BF554349008A
S31500000D9068B1084B02689A4201D007207047416843
S31500000DA0427C8B5C63F07F038B54002070470120EC
S31500000DB0704700BF5543490068B1084B02689A4224
S31500000DC001D0072070474168427C8B5C03F07F03AB
S31500000DD08B54002070470120704700BF55434900DF
S31500000DE020B1034B1B680360002070470120704749
S31500000DF0EC33000060B1154B02689A4201D007201F
S31500000E00704790F9103013F1210F03D16420704719
S31500000E100120704710B50446184601F0D9FF227C20
S31500000E2053B2002B0FDB5B099B0003F1604303F514
S31500000E306143012102F01F0201FA02F2C3F8802188
S31500000E401A60002010BD002010BD00BF55434900A8
S31500000E5058B338B50268174B9A4201D0072038BDFF
S31500000E60027C53B213F1210F21D0002B18DB5B0952
S31500000E7020330124104D02F01F0204FA02F245F855
S31500000E802320BFF34F8FBFF36F8F027C53B2002B2B
S31500000E9006DB590902F01F026031944045F82140F3
S31500000EA0184601F095FF002038BD012070476420E8
S31500000EB038BD00BF5543490000E100E0002841D09D
S31500000EC0214B02689A4201D00720704730B5037C57
S31500000ED0417C83B0044658B20025062210F1210F4A
S31500000EE00195ADF806108DF8042024D0A84218DB31
S31500000EF0400920300121154D03F01F0301FA03F3C9
S31500000F0045F82030BFF34F8FBFF36F8F237C58B265
S31500000F10002806DB420903F01F036032994045F8BA
S31500000F20221001F055FF0A4B94F910201B6853F864
S31500000F30323000221A6001A801F0AAFF00202060CA
S31500000F4003B030BD012070475543490000E100E081
S31500000F50C839000000B583B0EFF303830C4A103B99
S31500000F6012685BB252F833301B689A6832B102A835
S31500000F70D9685B7C40F8081D01939047EFF3038026
S31500000F80103840B201F024FF03B05DF804FB00BF47
S31500000F90C8390000F0B583B002AB002443F8044D15
S31500000FA01546214E44801A460C46336929789847DF
S31500000FB09DF804302374A8B958B210F1210F11D04E
S31500000FC01A496A780968002826DB00F16043120195
S31500000FD003F56143D2B283F8002351F830202B7910
S31500000FE014600BB903B0F0BD94F9100001F0F0FEE7
S31500000FF0227C53B2002BF5DB5B099B0003F16043B7
S3150000100003F56143012102F01F0201FA02F2C3F85F
S3150000101080211A6003B0F0BD054E03F00F031201E4
S315000010201E44D2B23276D8E778340000C8390000C0
S31500001030FCEC00E019B310B3F0B50E4687B02F49AB
S315000010400023062201930446029303930493059317
S315000010508DF80420CB6801A802A9984768B9BDF8A5
S315000010600E30029A6260C3F380030133DB003278EC
S31500001070DBB2934205D840F27A5007B0F0BD0120AA
S315000010807047B36813B17378FF2B08D001A8ADF889
S31500001090062001F0C9FE054618B10820EDE7032039
S315000010A0EBE7B268F368E360A2603378637401A883
S315000010B021463246FFF76EFF6768607CF1783B5C3D
S315000010C00F4A01F0030123F0300343EA01133B54B6
S315000010D06768607CB378395C03F0030321F0030191
S315000010E00B433B546768617C70797B5C03F07F033C
S315000010F043EAC0137B5428462260BEE778340000DA
S3150000110055434900024658B1064B07491B68002B58
S3150000111008BF0B460020596803EB81031360704734
S31500001120012070479000FE1F7035000088B10A4B01
S315000011301B6863B15A6800F1100103EB820353F890
S31500001140042F40F8042B8842F9D1002070471C2058
S3150000115070470120704700BF9000FE1F70B36AB34E
S31500001160174BF0B51E681EB3164B07781B68002494
S3150000117004E00134B44203F1080319D09D79BD425D
S31500001180F7D193F805E04588B5EB9E0FF1D1DD79EF
S3150000119090F801E005F0070CF445EAD1B1EBD50F64
S315000011A0E7D19B881470C3F3090353800020F0BD78
S315000011B0DF21FF23117053800B20F0BD0120704703
S315000011C00801FE1FC839000020B1034B1B680360ED
S315000011D000207047012070479034000070B42A4CFC
S315000011E0216851B1234604F57F70002201E053F8CF
S315000011F0041F83420A44FAD11AB100BE1D2070BCF6
S315000012007047224D22482A600368190CB1F5807F89
S3150000121002D0002070BC7047196801390331F8D834
S315000012201C495E6A8E42F4D12B6001686368486887
S3150000123004EB830301EB800101F123002333012139
S315000012404FF47E4503E0013201310138013B25FAB6
S3150000125002F4E40707D5072A10D0082A07D01E781B
S315000012600478A642C9D11029EDD10020D2E704782E
S31500001270372CE8D01E78A642E5D0BEE706781C7863
S31500001280A642E0D2B9E700BF703500009000FE1F0D
S315000012909CB17F405237465300285ED000295CD06F
S315000012A08B4B2DE9F0439A6890F800C003EB82025D
S315000012B09478A44537D24FEA1C1802EB88060CF046
S315000012C00F073589D2F804E025FA07F919F0010F5E
S315000012D029D0072FB67A09D902EB88080CF0070740
S315000012E098F80BC00CF00F0C66442D0ADFF8E48169
S315000012F0DFF8E4C118F80780754F08EA05052409E8
S315000013001CF80550023402EB8402AC1902EB4405CA
S3150000131032F814206C78C2F30902250603EB820327
S3150000132005D4002B4BD14FF4AF60BDE8F08317F81E
S31500001330222045785208FDB14FF0020E01260427FF
S315000013401C78E40705F1FF3552D5052A00F2BE8068
S31500001350DFE802F0332D211C1A05012070479A7828
S315000013601EFB0264033204EB9202920013441A78C5
S3150000137054082246002DE3D1042A00F2A480DFE8B7
S3150000138002F0636363503B000822EFE79A7817FB8D
S3150000139002629200EAE793F804C09C7814FB0CF210
S315000013A0D41C0CF1030204EB92029200DEE71A79D8
S315000013B0033222F003020C32D8E70C22D6E7447837
S315000013C0B4B9DC78C4F303144C72DC780125C4F399
S315000013D003048C728D804088002843D137F8222080
S315000013E00EEB02220A609B78CB800872C86015E07B
S315000013F040F27950BDE8F083DA78C2F303124A72FC
S31500001400DA78C2F303028A725878C88000228A808A
S315000014100A72CA605B680B608307E9D50020BDE8E5
S31500001420F083DA78C2F303124A72DA78C2F303025F
S315000014308A725A78CA809A788A80043304200022F5
S31500001440CB6008720A60E9E7DC78C4F303144C72D7
S31500001450DC78C4F303048C721D79ACB28C804088AE
S31500001460844203D840F27A50BDE8F083DC889E6857
S31500001470012A04FB00640C601CD0022A0AD09C7866
S315000014805B78002243EA0424CC800A72CA60002CEE
S31500001490E8D0C3E71C18EA1C247BCC809D780D722B
S315000014A0920805FB002003EB80030C33CB60002C75
S315000014B0D8D0B3E7034400221C7BCC800A72CA60F2
S315000014C0002CCFD0AAE76420BDE8F08300224DE7C8
S315000014D070350000F0330000F8330000034B043091
S315000014E01B6823F820100020704700BFD400FE1FA1
S315000014F0034B021D1B68002023F82200704700BF23
S31500001500D400FE1F034B1A68137863F07F03137031
S3150000151000207047D400FE1F034B1A68137803F0AF
S315000015207F03137000207047D400FE1F20B1034BC9
S315000015301B6803600020704701207047B03400002C
S3150000154060B1012808D1094B1B68002040214122C7
S31500001550187119711A71704701207047034B1B6887
S3150000156040214122987099709A707047D400FE1FEE
S31500001570002836D070B51C4986B000230B22019393
S3150000158002930393049305930546CB688DF80420D4
S3150000159001A802A99847044608B106B070BD134ECB
S315000015A0029B336001A801F0CDFB6B6873B1306814
S315000015B02346AA6812F8231002EB830204315288EC
S315000015C020F821206A6801339A42F2D82878002848
S315000015D0E3D032681378002063F07F03137006B0FF
S315000015E070BD0120704700BF78340000D400FE1F94
S315000015F028B321B3134B1B6893F8262002F0070289
S3150000160002701A6AC2F302320A701A6AC2F302221E
S315000016104A701A6AC2F302128A701A6A02F0070244
S31500001620CA701A6AC2F302420A711A6AC2F30272D5
S315000016304A711B6AC3F302638B7100207047012055
S31500001640704700BF9400FE1F0620704706207047B3
S315000016500620704706207047062070470620704710
S3150000166020B1034B1B6803600020704701207047C0
S3150000167038350000344A536893F8281001F03003D7
S31500001680102B31D0202B0AD0DFED307AF0EE676ACE
S3150000169067EEA67AFCEEE77AC2ED077A704790F815
S315000016A02B302B499B0931F81310002948D090F8AC
S315000016B02B30D2ED057A03F01F03B8EE677A06EEFB
S315000016C0903A07EE901AF8EE666AB8EE676AF7EE99
S315000016D0007A76EEA76AC7EE067A67EEA67AFCEE81
S315000016E0E77AC2ED077A7047038D10B403F003035F
S315000016F0184C34F813400CB34B0622D5038D13F067
S31500001700100F0CBF0321002102EB8101D1ED027AFB
S31500001710038DB8EE677A07EE904AB8EE676AC3F3B0
S315000017200523C7EE067A013306EE903AFAEEEF6A23
S3150000173067EEA67AFCEEE77AC2ED077A5DF8044B0F
S3150000174070470321E0E700BF9400FE1F0000000081
S31500001750B43400002835000003290ED0052907D02F
S3150000176009B10120704790F83C0000F00100704775
S3150000177090F83C00C0F34010704790F83C00C0F36E
S31500001780C000704791F800C04A79F8B591F801E0B9
S315000017908F78CE780D798B7900246CF30E346EF346
S315000017A00A2467F3061466F3020465F3124462F32F
S315000017B01E74054663F31A64002001F0E1FB2C62F7
S315000017C00020BDE8F84001F0ABBB00BF10B5184BD8
S315000017D01C6894F84120D20706D494F84130D90702
S315000017E04FF0000016D410BD5A6894F8263092F8CF
S315000017F02820520603F0070306D4052B01D0032B3D
S31500001800EBD140F2971010BD228DD006F5D5052BF1
S31500001810F5D1E2E701F0B4FB94F8413023F001037F
S3150000182084F84130002001F07BFB002010BD00BF92
S315000018309400FE1F38B50A4B1D680446002001F0CF
S315000018409FFB95F8303004F0010423F001031C439C
S3150000185085F83040002001F063FB002038BD00BF52
S315000018609400FE1F084B10B51C68002001F088FB91
S3150000187094F8523043F0010384F85230002001F00E
S315000018804FFB002010BD00BF9400FE1F084B10B593
S315000018901C68002001F074FB94F8523023F0010319
S315000018A084F85230002001F03BFB002010BD00BF41
S315000018B09400FE1F084B10B51C68002001F060FB69
S315000018C094F83E3063F07F0384F83E30002001F048
S315000018D027FB002010BD00BF9400FE1F084B10B56B
S315000018E01C68002001F04CFB94F83E3003F07F03A7
S315000018F084F83E30002001F013FB002010BD00BF2D
S315000019009400FE1F084B10B51C68002001F038FB40
S3150000191094F8533043F0010384F85330002001F06B
S31500001920FFFA002010BD00BF9400FE1F084B10B543
S315000019301C68002001F024FB94F8533023F00103C7
S3150000194084F85330002001F0EBFA002010BD00BFF0
S315000019509400FE1F38B50A4B1D680446002001F0AE
S315000019600FFB95F8243004F0070023F0700343EAD8
S31500001970001085F82400002001F0D2FA002038BDBE
S315000019809400FE1F03788B4201D2052070474378EE
S315000019909942FAD883789942F7D8C3789942F4D80D
S315000019A043799942F1D803799942EED880798142F8
S315000019B08CBF05200020704710B4002941D00628AE
S315000019C037D005280AD0042823D0D8B1012828D03A
S315000019D002283AD0032840D0032010E0234C0023ED
S315000019E020680B60026AC2F3027290F8263003F098
S315000019F0070304EB830300209B68D3400B605DF86C
S31500001A00044B7047194C08602068026AC2F3023220
S31500001A10EBE7164C002320680B60026AC2F3024211
S31500001A20E3E7124C002320680B60026AC2F302222D
S31500001A30DBE70E4C002320680B60026AC2F30262E9
S31500001A40D3E701205DF8044B7047084C002320685B
S31500001A500B60026AC2F30212C7E7044C0023206837
S31500001A600B60026A02F00702BFE700BF9400FE1F88
S31500001A7008B903207047F8B50D46044600F048FF44
S31500001A8007EE900AF8EE676AF7EE007AC7EEA66AE6
S31500001A90154A164E10680027176096F82330D9B2FB
S31500001AA007EE905A07EE104AF8EE677AB8EE477AD4
S31500001AB066EEA77AC7EE277AFCEEE77A17EE903A3B
S31500001AC0013BB3F1807F0CD201F0F001F025072431
S31500001AD0536086F823509760146086F823103846C2
S31500001AE0F8BD10601220F8BD10E000E000ED00E047
S31500001AF070B50C4682B0002956D0054600287FD026
S31500001B00404C236893F8AA0010F0010065D193F8C1
S31500001B10A020196A6668C1F302318DF80010196AAF
S31500001B20B068C1F302218DF80110196AC1F30211E0
S31500001B308DF80210196A01F007018DF80310196A71
S31500001B40C1F302418DF80410196AC1F302718DF8D0
S31500001B500510196AC1F3026102F003038DF806103D
S31500001B6000283CD0032B3AD131696846FFF70AFFBB
S31500001B7000283FD12946012000F084FF2468002078
S31500001B8001F0FEF994F8403063F07F0384F84030AA
S31500001B9094F8403043F0010384F84030002001F00F
S31500001BA0BFF9002002B070BD164B1D6895F8413094
S31500001BB0DB0721D4084601F0E3F995F8403023F01D
S31500001BC0010385F8403095F8403003F07F03204646
S31500001BD085F8403001F0A4F9204602B070BDF268E5
S31500001BE0002AC7D0022BC5D171696846FFF7CAFE25
S31500001BF00028BFD00520F0E74FF4CB7002B070BDCF
S31500001C000120EAE79400FE1F38B50B4B04465B68DB
S31500001C10002093F8225001F0B3F994F88034DB07E2
S31500001C2005D594F8813423EA050384F8813400202D
S31500001C30BDE8384001F074B99400FE1F052827D08E
S31500001C40184B042870B51E6824D0044600200D46A3
S31500001C5001F096F996F83E3003F07F0386F83E30A1
S31500001C6096F83E3005F0070123F0700545EA0111AC
S31500001C7086F83E1096F83E3004F0070023F007047D
S31500001C80204386F83E00002001F04AF9002070BD8E
S31500001C900320704796F88034DB07D6D54FF4C8701A
S31500001CA070BD00BF9400FE1F0A4B1B6893F82A0004
S31500001CB010F001000DD093F8320010F0010008D0AA
S31500001CC093F8360010F001001CBF93F8380000F0BE
S31500001CD0010070479400FE1F05292ED8DFE801F0A9
S31500001CE00A11181F260390F82A0000F0010080F060
S31500001CF00100704790F8360000F0010080F0010006
S31500001D00704790F8380000F0010080F0010070473D
S31500001D1090F8900400F0010080F00100704790F800
S31500001D20320000F0010080F00100704790F8800456
S31500001D3000F0010080F0010070470020704700BFEE
S31500001D4070B582B04FF6FF730193D1B1A1F10204D1
S31500001D500546B4FA84F40C4E640904E0019B43B1D1
S31500001D60019B013B019330682946FFF7B5FFA0426E
S31500001D70F4D1019B002B0CBF4FF4CD70002002B0B4
S31500001D8070BD084602B070BD9400FE1FF0B5364D1A
S31500001D9087B0281D00F064FE06A8344A00230321FC
S31500001DA00093029300F8181D03930493059302A968
S31500001DB0D3689847029C2C604FF6FF73019394F802
S31500001DC03630D90736D5002001F0DAF894F8A53078
S31500001DD0254E23F0070343F0060384F8A5300020C0
S31500001DE001F09EF86B682F689869DB69204A6B6181
S31500001DF000244FF6FF714FF40043A860204601917E
S31500001E00EA60EC612B61AB6101F0BAF897F88034B7
S31500001E1043F00103204687F8803401F081F804205E
S31500001E200121FFF78DFF0446A8B14FF4CD7420467B
S31500001E3007B0F0BD94F83C30DA0708D4019B33B103
S31500001E40019B013B019394F83C30DB07F6D5019BDF
S31500001E50002BEAD0B7E7336818461A6A93F826309B
S31500001E60FFF7D2FEE3E700BF9400FE1F78340000C0
S31500001E7000127A00052801D90320704738B53D4D78
S31500001E802A6892F8263003F0070398421FD0052BE4
S31500001E9010D092F82A30D9070CD5012803D192F830
S31500001EA04030DB0918D1044621461046FFF714FFDF
S31500001EB0A8B938BD6B6893F828305B060AD5138D30
S31500001EC013F0100F0CBF032300239842E5D140F214
S31500001ED0911038BD0323F8E740F2951038BD286805
S31500001EE0244D2146FFF738FC10B940F29310E0E785
S31500001EF000202D6801F044F8052C0AD8DFE804F02C
S31500001F002B32241D160395F82A3043F0010385F879
S31500001F102A30002001F004F820460121FFF710FFC7
S31500001F20002814BF4FF4CD70002038BD95F88034DA
S31500001F3043F0010385F88034EBE795F8323043F03F
S31500001F40010385F83230E4E795F8903443F0010355
S31500001F5085F89034DDE795F8363043F0010385F8CF
S31500001F603630D6E795F8383043F0010385F8383037
S31500001F70CFE700BF9400FE1F052801D90320704754
S31500001F8038B5431E012B044611D904280FD028B1B9
S31500001F90032803D0052801D0002038BD104D214666
S31500001FA02868FFF799FE78B94FF4C87038BD0C4B16
S31500001FB021461868FFF790FE40F29113002814BFDF
S31500001FC018464FF4C87038BD28682146FFF7C4FB91
S31500001FD040F2931300280CBF18464FF4C97038BD61
S31500001FE09400FE1F70B506464FF6FE7440F2931538
S31500001FF001E0013C0CD03046FFF7BEFFA842F8D006
S3150000200038B16FF4C873C318022B38BF002070BDF7
S31500002010284670BD30B583B04FF6FF7304460120E5
S3150000202001930D4600F0ACFF02A8002300F8053D21
S3150000203000F0E6FB94F8AA30D80603D494F8A03052
S31500002040D9060AD5019B013B0193019B002BF1D1D7
S31500002050012000F065FF03B030BD94F8AA304FF6BA
S31500002060FF7223F0010384F8AA30019202E0019B7B
S31500002070013B019394F8AA30DA0603D494F8A03011
S31500002080DB0602D5019B002BF1D1042D3FD094F83D
S31500002090A02005F0030322F00302134384F8A030C6
S315000020A04FF6FF73019302E0019B013B019394F805
S315000020B0AA30D80603D494F8A030D90602D5019BDD
S315000020C0002BF1D194F8AA30042D0CBF43F0010384
S315000020D023F0010384F8AA304FF6FF73019302E060
S315000020E0019B013B019394F8AA30DA0603D494F8D5
S315000020F0A030DB0602D5019B002BF1D19DF8030031
S3150000210000F092FB012000F00BFF03B030BD94F805
S31500002110A03043F0030384F8A030C1E7042810B5CB
S315000021200C4607D0022805D00D4B5A689268A24289
S315000021300BD210BDFFF7B8FD0028F5D0084B0421DF
S315000021401868BDE81040FFF765BF186890F82A3098
S31500002150DB07EED50321BDE81040FFF75BBF00BFEC
S315000021609400FE1F054B186890F8AA30DB0702D4CE
S3150000217090F8A03070470321FFF74CBF9400FE1F74
S31500002180052801D9032070472DE9F047C44E2DEDEF
S31500002190028B0D46044601463068FFF79DFD074653
S315000021A030BB042C3FD0012C4BD054B3032C58D059
S315000021B0052C00F0A280356800F0E2FE032C00F04A
S315000021C09580042C36D0022C41D195F8903423F01A
S315000021D0010385F89034002000F0A2FE204602217B
S315000021E0FFF7AEFD002814BF4FF4CD70002004E0C9
S315000021F03068FFF73FFA40F29110BDEC028BBDE864
S31500002200F087336893F83C30DB0727D4FFF7AAFF43
S315000022103568204600F0B4FE95F8363023F0010309
S3150000222085F83630D7E73068FFF7EEFC3846356874
S3150000223000F0A6FE95F8803423F0010385F880347B
S31500002240C9E7FFF78FFF3846356800F099FE95F825
S31500002250383023F0010385F83830BCE740F293109C
S31500002260CBE7336893F83C50C5F3C005002DF5D194
S31500002270FFF778FF7368D6F8009093F8277093F805
S3150000228021A093F82080284600F07AFE99F81324BE
S3150000229007FA0AF75FFA88F307EA030122EA03035B
S315000022A00B4389F81334284600F03AFE376828466F
S315000022B000F066FE97F8133423F0400387F81334D2
S315000022C0284600F02DFE3768284600F059FE97F89C
S315000022D0A23023F00F0343F00503284687F8A23007
S315000022E000F01EFE2846356800F04AFE95F83230AA
S315000022F023F0010385F832306DE75DB373686878C3
S3150000230093F824202978904222D893F8262095ED38
S31500002310017A07EE902AF8EE677AF4EEC77AF1EEC4
S3150000232010FA15D493F8253007EE903AF8EE677A4E
S31500002330B4EEE77AF1EE10FA0AD4032900D039B9DF
S315000023403068574FFFF7C8FC30B94FF4CA7054E7EE
S31500002350032052E7012050E73B6893F83C80C8F31E
S315000023604018B8F1000F7FF479AFFFF7FBFE95F840
S3150000237000903F68404600F003FEB9F1030F00F0FD
S315000023808A803B8D43F010033B85002000F0C8FD9A
S315000023907368D6F8008093F8283095F8019003F01A
S315000023A03003102B11D13F4B002033F8197000F089
S315000023B0E7FDB8F8283007F0030723F003033B4393
S315000023C0A8F82830002000F0ABFD736893F8283099
S315000023D003F03003202B12D1334B002033F8197051
S315000023E000F0CEFD98F82B3007F0030703F03F030B
S315000023F043EA871388F82B30002000F091FD7368BC
S31500002400376893F8283095ED018A03F03003102BD6
S3150000241014D1002000F0B4FD78EE087A3A8DFCEE77
S31500002420E77A22F47C5217EE903A013B03F03F0321
S3150000243042EA03233B85002000F072FD736893F89F
S31500002440283003F03003202B13D1002000F098FD34
S31500002450FCEEC87A97F82B2017EE903A013B03F072
S315000024601F0322F01F02134387F82B30002000F0D1
S3150000247057FD3068FFF7FEF830680021FFF7CAFD08
S315000024803568002000F07CFD95F82A3023F0010322
S3150000249085F82A309FE63B8D23F010033B8574E7D1
S315000024A09400FE1F303500003C350000012815D091
S315000024B0022801D000207047052938B515460C467C
S315000024C00FD02046291DFFF75BFE28B140F291137D
S315000024D0984208BF002038BD002038BD0846FFF7E7
S315000024E0C9BC10791146FFF74BFE18B140F29113A3
S315000024F09842F0D12879FFF775FD0028E1D038BD64
S315000025002DE9F0430B788A794C78CD7891F804E080
S315000025104F79934285B001D3A34203D9032005B076
S31500002520BDE8F083AB42F9D39442F7D39742F5D393
S315000025309645F3D3042806460C4600F08A805A4F87
S31500002540386890F8263003F007039E420FD0002E1D
S3150000255075D0032E73D0052E71D03146FFF7BCFB24
S3150000256020B94FF4C87005B0BDE8F0833868036A37
S31500002570036A036A036A036A036A036ADFF8288147
S315000025800021C3F30269FFF745FD07EB8603A27935
S315000025909B683968D340002201938DF800208DF89E
S315000025A00C200A6A91F8263003F0070307EB830331
S315000025B0C2F302629B686846D340029300F0B8F902
S315000025C005460028ABD1A3794B4547D92146D8F813
S315000025D00000FFF7D7F8D8F80040284600F0D0FCF6
S315000025E094F8262006F0070322F007021343284634
S315000025F084F8263000F094FC3B681A6A93F826307B
S3150000260003F0070307EB8307C2F30262BB68684661
S31500002610D340012202938DF8002000F089F9044688
S3150000262000287FF47CAF00F073F9204B0146186058
S31500002630002896D03046FFF771FD20466FE73146F9
S31500002640FFF78AF8002891D140F2931005B0BDE853
S31500002650F083CAB1052005B0BDE8F083D8F8009034
S3150000266000F08EFC99F8262006F0070322F00702F8
S315000026701343284689F8263000F052FCD8F80000AB
S315000026802146FFF77FF8B7E7002FE3D1064F3868FA
S3150000269090F84030DB09DDD190F8263003F00703CF
S315000026A0042B7FF45AAF62E79400FE1F2001FE1F41
S315000026B0052801D90320704709B1FFF721BF012082
S315000026C0704700BF2DE9F04186B000285ED0044671
S315000026D006A80023257800F8113D04A98DF81030CE
S315000026E08DF811308DF812308DF813308DF81430C6
S315000026F08DF815308DF81630FEF77AFF667DE77C8B
S31500002700217DE27DA37D207E8DF80860052D8DF864
S315000027100A708DF809108DF80B208DF80C308DF8A5
S315000027200D0004D90324204606B0BDE8F0812378C5
S3150000273006AA134413F8103C012BF3D0022807D144
S315000027402379052BEED8134413F8103C012BE9D05E
S3150000275005212246FFF7AAFEE8B900273046F9B25E
S315000027602246FFF7A3FE02AE40F29118013708B1E8
S31500002770404514D1052F14D0F9B216F8010F2246A0
S31500002780FFF794FE01370028F4D0F1E70124204634
S3150000279006B0BDE8F08140F291139842DDD00446C0
S315000027A0C1E72846FFF71EFC0028F8D1042D21D0EA
S315000027B0064604F10C012846FFF7A2FE044600284F
S315000027C0B1D19DF80700854205D006AB034413F846
S315000027D0103C012B08D0002EA5D000F099F8014638
S315000027E02846FFF79BFC9EE7FFF744FB0028F2D044
S315000027F0044698E7FFF758FA80F00100C6B2D8E71A
S3150000280068B1084AB2F8003103F00103037092F888
S3150000281000316FF3000382F8003100207047012079
S31500002820704700BF00C00140104991F8043143F0E1
S31500002830010381F80431B1F80431DB070CD54FF000
S31500002840FF3300E033B1B1F80421D20703F1FF33BF
S31500002850F8D40BB914207047044A92F8003160F39B
S31500002860000382F800310020704700BF00C001401D
S3150000287070B5254D82B02B6898470120FFF7D4FF2D
S315000028800021AE680320B0470121204AEC698DF88B
S315000028900110032301928DF800300320A047B0F504
S315000028A0C97FFAD169460520B04720B140F291139D
S315000028B0984200D000BE0520A047B0F5C97FFAD1E6
S315000028C00223012200208DF806008DF801308DF8D4
S315000028D002308DF8053069468DF800208DF803200A
S315000028E08DF804202B690520984700B100BE2B6E99
S315000028F004209847AB6A01209847EB6A9847AB6D6E
S31500002900984702B070BD00BFBC3400000000A04173
S3150000291000B583B002A9002341F8043D034B06200D
S315000029209B699847019803B05DF804FBBC3400002E
S31500002930037870B423B1012B3CD0002070BC7047E3
S3150000294042683E498A426BD93D4B3E4EF1251D7188
S31500002950197A41F004011972197A41F008011972C5
S31500002960197A41F001011972197AF02441F0020135
S31500002970B24219721C7105D91D71197A41F0100104
S3150000298019721C71304B31499A4294BF01230223BC
S3150000299003731C4691F81C3103F00703A3423FBFA3
S315000029A091F81C3123F00703234381F81C31037887
S315000029B0012BC2D18368214A93423BD8204BF12296
S315000029C01A711A7A22F004021A721A7A22F008028E
S315000029D01A721A7A22F001021A721A7AF02122F079
S315000029E002021A721971164BF1221A711A7AF02123
S315000029F022F010021A7219711449037B91F81C21F6
S31500002A0002F00702934298D091F81C2103F00703C5
S31500002A1022F00702134381F81C31002070BC704776
S31500002A200B498A42AED8094A037392F81C3100203A
S31500002A3070BC7047034A9342DED8D4E7000E2707DE
S31500002A400020004000C2EB0B0068890900C001406D
S31500002A5000B4C404037843F003030370704700BF57
S31500002A60014B0360704700BF44350000044B002152
S31500002A7003F1300243F8041B9342FBD1704700BFB9
S31500002A80D800FE1F024B43F820100020704700BFFD
S31500002A90D800FE1F08B57A4BB3F84031D90700F1CC
S31500002AA0C180774BB3F840319A0700F1B080744B80
S31500002AB0B3F840315B0700F19F80714BB3F84031AA
S31500002AC0180700F18E806E4BB3F84031D9067CD4DE
S31500002AD06B4BB3F84001C0F38010002869D1684BF6
S31500002AE0B3F840311A0658D4654BB3F84031DB05CC
S31500002AF047D4634BB3F84031980536D4604BB3F8EE
S31500002B004031590524D45E4BB3F840311A0512D42E
S31500002B105B4BB3F84031DB0400D408BD594BDB6A8C
S31500002B20002B40F0AA80564AB2F8303143F4805365
S31500002B30A2F8303108BD534B9B6A002B40F09A80B7
S31500002B404F4AB2F8303143F40063A2F83031DFE780
S31500002B504C4B5B6A002B40F08A80494AB2F8303110
S31500002B6043F48063A2F83031CDE7464B1B6A002B55
S31500002B707AD1434AB2F8303143F40073A2F83031C7
S31500002B80BCE7404BDB69002B6BD13D4AB2F83031D4
S31500002B9043F48073A2F83031ABE73A4B1B68002B45
S31500002BA05CD1374AB2F8303143F08003A2F83031B5
S31500002BB09AE7344B5B68002B4ED1314AB2F830317C
S31500002BC043F04003A2F8303189E72E4B9B69002B76
S31500002BD03FD12B4AB2F8303143F01003A2F830311E
S31500002BE076E7284B5B698BBB254AB2F8303143F058
S31500002BF00803A2F8303166E7224B1B691BBB204A4B
S31500002C00B2F8303143F00403A2F8303155E71D4BDA
S31500002C109B68ABB91A4AB2F8303143F00203A2F806
S31500002C20303144E7174BDB683BB9154AB2F830310F
S31500002C3043F00103A2F8303133E703209847F4E765
S31500002C4002209847E6E704209847D8E705209847EA
S31500002C50CAE706209847BCE79847AEE700209847A2
S31500002C609FE70720984790E70820984781E70920C3
S31500002C70984772E70A20984762E70B20984752E781
S31500002C8000600040D800FE1F30B412490278458823
S31500002C90895C447801F01F03890614D501212B2A8B
S31500002CA001FA03F008D0332A04D1012C04BF5A1CC0
S31500002CB004FA02F030BC7047072DFBD9013301FA44
S31500002CC003F030BC70472C441B1B0120984030BCDD
S31500002CD0704700BF803900000378452B12D870B5C5
S31500002CE0164CE65CFF2E0BD015460C46FFF7CCFFC4
S31500002CF0134BB20953F8223034B1B20611D585B957
S31500002D00032070BD01207047EFF31082012181F38B
S31500002D101088196821EA0000186082F3108820469E
S31500002D2070BDEFF31082012181F310881968084302
S31500002D30186082F31088002070BD00BF8039000043
S31500002D407039000000210A46FFF7C6BF034638B1B6
S31500002D50054A92E80300002283E803001046704704
S31500002D6001221046704700BFE0390000A0F10100C3
S31500002D700028FBD1704700BF2DE9D04301FB00F4CA
S31500002D80FFF7C6FD4FF47A71A4FB018900274FF0C7
S31500002D90FF364F4508BF46450C4BB3FBF0F005D355
S31500002DA0B8FBF0F0800860B9BDE8D0838000B4FBC2
S31500002DB0F0F0A0FB01018F4208BF8642F3D24FF02C
S31500002DC0FF30BDE8D043FFF7D1BF00BF00CA9A3B32
S31500002DD0002808DB800000F1804000F5C64003684B
S31500002DE023F48033036070470B4A0C4B10B49B1AD4
S31500002DF00B4CDB08236063B10A4800219388C3F3B8
S31500002E00090340F8043F236801318B4202F10802AE
S31500002E10F4D85DF8044B704700050000100500006B
S31500002E200801FE1FFC620040164B10B41C687CB102
S31500002E30154B00681A681368984218BF002304D11E
S31500002E400AE052F8041F814207D00133A342F8D1A9
S31500002E5003205DF8044B704700230C4A12680121D9
S31500002E60134403E0C3E8401F0028F2D0D3E84F2FF5
S31500002E7012F0FF0FF6D0BFF32F8F08205DF8044B3A
S31500002E80704700BF0C01FE1F1001FE1F1401FE1F3C
S31500002E900F4B10B41C687CB10E4B00681A6813689F
S31500002EA0984218BF002304D109E052F8041F81425A
S31500002EB006D00133A342F8D15DF8044B70470023D6
S31500002EC0054A12680021D1545DF8044B704700BFD3
S31500002ED00C01FE1F1001FE1F1401FE1F38B50A4C1F
S31500002EE00A4D0B480B490C4B0C4A04602D1BAD08D0
S31500002EF00D601A603DB104EB850520460434FFF7EA
S31500002F00C7FFAC42F9D138BD10050000C00600006D
S31500002F101001FE1F0C01FE1F1401FE1F1000FE1FF4
S31500002F20EFF31081012383F31088124B33F810203E
S31500002F3092B22AB133F81020013A92B223F8102047
S31500002F4033F810309BB293B910B40B4A0B4CB2F85D
S31500002F50FE3334F810009BB243F4254323EA000302
S31500002F60A2F8FE3381F310885DF8044B704781F3B5
S31500002F70108870471801FE1F00E00140CC390000A0
S31500002F8030B4EFF31084012383F310880D4A32F82E
S31500002F9010309BB25BB90C4D0C49B5F8FE3331F8D5
S31500002FA010109BB243F425430B43A5F8FE3332F8C9
S31500002FB0103001339BB222F8103084F3108830BCF5
S31500002FC0704700BF1801FE1F00E00140CC39000029
S31500002FD0024B00221A805A809A8070471801FE1F01
S31500002FE000BE704708B500F005F800F05BF9FEE793
S31500002FF0704700BF284A38B5D2F8883043F47003CA
S31500003000C2F888300020FFF7F3FFFFF72FFD234BB0
S315000030101B689847FFF7DCFFFFF72AFC204A214B85
S3150000302021481B68002414809847204A204B9B1A8D
S3150000303005D01344214603F8011D9A42FBD11D48D1
S315000030401D4BC01A07D01D4A184412F8011B03F87D
S31500003050011B8342F9D1FFF75BFC194C194B1A4D42
S3150000306018602D1B0120FFF7C3FF032DC8BF2D19C4
S3150000307004DD54F8043B9847AC42FAD1FFF72EFF23
S31500003080FFF7B2FE114B12481B6898470020BDE8B7
S31500003090384000F01FB800BF00ED00E078340000B3
S315000030A0D000FE1F88330000183A0000B400FE1F4F
S315000030B05401FE1F7C00FE1F0000FE1FA43D000001
S315000030C00400FE1F2001FE1F0800FE1F94340000AE
S315000030D0D439000000F042B882B04FF0C843002156
S315000030E00091009A1A7D61F300021A751A8DD0B10B
S315000030F0202161F30F221A851A8D4FF0C04142F04C
S3150000310080021A850A68009240F6FF7219460192FB
S3150000311004E0019B013B0193019A12B18A6A5206AF
S31500003120F7D502B0704742F47F421A851A8D4FF0E8
S31500003130C04160F3C7121A850A68009240F6FF7113
S315000031401A46019105E0019B013B0193019B002B6F
S31500003150E7D0936A5B06F6D402B07047F8B54D49DE
S315000031600A684FF0C844002322F0400210200A608B
S315000031702063A36123626363C4F80438227A63F38D
S3150000318004022272237DFF2243F00103237522618C
S31500003190237D662243F0010323752261237D992254
S315000031A043F0010323752261237D43F00103237558
S315000031B001212320FFF7E0FD9F232361364B22697F
S315000031C01A7022695A702169227D997042F00102B3
S315000031D022751A78EF2A04D000221A705A709A7053
S315000031E0F8BD5A78402AF7D19A78172AF4D10520E3
S315000031F020612A4923690B70227D294B42F0010286
S3150000320035262275266122691A70227D42F0010256
S315000032102275228D042565F3030222852279502723
S3150000322065F3030222712761227D42F001022275B5
S315000032301A78012742F002021A7027610A78226181
S315000032401A782261227D3A4322752561227D3A430E
S315000032502275228860F302022280206122690A70A8
S31500003260227D3A432275266122691A70237D3B43EB
S315000032702375238843F040032380A369DB074FF0BF
S31500003280C845FAD40120FFF727FF2B7D6FF3000313
S315000032902B75F8BD007004402401FE1F2801FE1F97
S315000032A02C01FE1F08B500F003F8002008BD00BF82
S315000032B008B50548FFF74AFD044B9A681868126876
S315000032C059689047FEE700BF4C01FE1FF839000021
S315000032D070B50C4B0C4E0D4C5D6872682B6A1088ED
S315000032E02178984772682B6A5088217898477268C7
S315000032F02B6A9088217898472378B3FA83F35B0981
S31500003300237070BDF03900004C01FE1F0000FE1F47
S315000033104275696C7420776974682052656E6573AE
S3150000332061732053796E657267792028544D292080
S31500003330536F667477617265205061636B61676570
S315000033402076657273696F6E20312E362E302B62B1
S3150000335075696C642E373165653162633638383489
S3150000336036000000312E362E300000000000060127
S31500003370F8B500BFF8BC08BC9E467047F8B500BF5C
S31500003380F8BC08BC9E467047150C0000350B0000C3
S315000033908D0C00000D090000B5070000450800006F
S315000033A0DD0A00001D070000B9080000110A000030
S315000033B08D0700000D08000065070000D909000010
S315000033C0A1080000020403040404FFFF35100000F6
S315000033D0F50D0000510E00005D0D0000910D00007E
S315000033E0B90D0000BD0E0000E10D0000060102014E
S315000033F0000103070F1F3F7F0001010201020203C4
S31500003400010202030203030401020203020303048E
S315000034100203030403040405010202030203030476
S31500003420020303040304040502030304030404055E
S31500003430030404050405050601020203020303044E
S31500003440020303040304040502030304030404053E
S315000034500304040504050506020303040304040526
S31500003460030404050405050603040405040505060E
S315000034700405050605060607DD1100000511000016
S315000034802D110000991200005D110000C911000005
S31500003490060103017115000041150000DD1400004E
S315000034A0F114000005150000191500002D15000087
S315000034B003010201010002000400FFFF8D1D000050
S315000034C0C526000081210000751E0000B1260000FF
S315000034D0F1150000B9190000791F0000F11A00006B
S315000034E0CD17000035180000651800008D18000083
S315000034F03D1C0000B5180000DD180000491600004C
S315000035004D16000051160000551600005916000011
S315000035105D160000051900002D1900005519000060
S31500003520711A000061160000010002000300FFFF8F
S31500003530000001000200FFFF0D0103010000010071
S315000035400000020040420F000000000040420F0051
S31500003550000000000400000002000000002D310100
S3150000356000366E0130040201020A1E00D0FE010080
S3150000357002000310040000001C00000013000000FD
S31500003580030E0010FFFFFFFFFFFFFFFFFFFFFFFF20
S31500003590FFFFFFFF52374653374732374833413034
S315000035A031434643575331343431413130300000D2
S315000035B00000000002B06400F000000001000810E6
S315000035C0F3E0BFB6057933498B43F24F1693A05DFE
S315000035D01E7A1DD8700D7A8242786A5EC35C0B191A
S315000035E00400501100000040FFFF0008FFC1100852
S315000035F01FFF1B057F0028073F002F063E804780E0
S315000036004C806A0064806B00820056806E00BD802C
S31500003610B08083006F005B807000720071007300E1
S31500003620740075008A8086808D80CF8076006C005D
S315000036306D00B5807B007A007C00A0807700780062
S31500003640790090809A80978084009D80A3807D0079
S31500003650D580D880A6808500AD80A980DE807E00DA
S315000036607F008000810000000607021000000000B5
S31500003670FFFF000000200000000100000000010024
S31500003680FFFF3F0000800000000100000607011058
S3150000369000001040FFFF1040400000000400000042
S315000036A00A000410070B0B0F0000FE1FFFFFFF1F91
S315000036B000000020FFFF032000000420FFFF07207A
S315000036C000E00F20FFFF0F20010700100800400058
S315000036D0005000400803011000520040015F001036
S315000036E00100000C00000040011F00100100000155
S315000036F0000C00400003001001000001000D004016
S31500003700010700100100000100E07F4000030010E7
S315000037100100100000C07F40E0010310B00103105B
S31500003720C0010310200003105400031030000F10D6
S31500003730700403100008071010000310460403105D
S315000037404105031040070310000C03104004071046
S315000037504204031044040310D0050310E0050B10C7
S31500003760F00503100F07071040090310000E07119C
S31500003770400E0310600E03106000071010040310C3
S31500003780B0070710800403100200001003000001B8
S315000037900030054007030300000F00100A00200058
S315000037A000000740000F0010020000010020074043
S315000037B0020000100E000001008007403F1F1F1F7F
S315000037C00F0F0F0F0707070707070000000300107A
S315000037D001001000F08F07400003001004000001F4
S315000037E000200440000300100200000100400840D1
S315000037F000070010060000010050084000070010F6
S31500003800020000100000054000070010020000043E
S3150000381000200640020000100200000200400640A0
S3150000382007070000000700110200000100E0044045
S3150000383001030010C0000400000804400803011042
S31500003840000D0440040002100200000200C0054002
S315000038502B2B00007F007F003F000F007F006F00D2
S315000038601F000F00040001100C002000000004409F
S31500003870070B0B0B0B03030303030303FFCFFFC766
S31500003880FFFFFFFFFF30FF30FFFFFFFFFFFFFFFFE0
S31500003890FFFFFF38FFFFFFFFFFFFFF00FF3F7F0037
S315000038A0FFFFE301FFFF0307FF0003000400021010
S315000038B0010020000010084003000000FFFFFF0F7A
S315000038C00300000000030010010000020000006475
S315000038D0011700100100001000000940001F002021
S315000038E00100000200000640010300100100000173
S315000038F00044064001030010010000010045064097
S3150000390001030010010000080050064000030010EB
S315000039100200000400580640FFFFFFFFFFFFFFFF05
S31500003920FFFFFFFFFFFFFFFFFFFFFFFFFFFFFFFFA1
S31500003930FFFFFFFFFFFFFFFFFFFFFFFFFFFFFFFF91
S31500003940FFFFFFFFFFFFFFFFFFFFFFFFFFFFFFFF81
S31500003950FFFFFFFFFFFFFFFFFFFFFFFFFFFFFFFF71
S31500003960FFFFFFFFFFFFFFFFFFFFFFFF725ABC9E37
S315000039701CE00140007004400470044008700440DC
S31500003980FFFFFFFFFFFFFF3636FFFF8EFFFFFFFF44
S31500003990FF808D815F4953839FFFFFFFFFFFFFFF7E
S315000039A0D0F4D6FFDCFFFFFFFFFFFFE5EEFFFFC30E
S315000039B04245466B8C8988FFFFFFFFFFFFFFFFFF35
S315000039C04F6D82848685FFFF00050000010002001E
S315000039D00800FFFF010000000000000000000000DA
S315000039E003000000E8390000000601060206FFFF9A
S315000039F000000000883300003801FE1F043A000072
S31500003A00CC3300000B0C000301000000D132000093
S31500003A10F83900000000000070000000203A0000A5
S31500003A20008000000000000000800000010000008F
S31500003A3000800000020000000040000004000000BA
S31500003A4000400000050000000040000006000000E5
S31500003A50008000000800000000800000090000004F
S31500003A60004000000A000000008000000E00000078
S31500003A70008000000F0000000004010600010000A5
S31500003A800004010601010000000401060201000015
S31500003A900004010603010000000401040401000003
S31500003AA00004010405010000000C010406010000E9
S31500003AB004040000070100000000010008010000E6
S31500003AC00000010009010000000001000A010000D9
S31500003AD0004000000B010000000000000C01000087
S31500003AE0040400000D010000000C010402020000A5
S31500003AF000000000030200000000010C04020000A8
S31500003B000000010C050200000000010C0602000086
S31500003B100000010C07020000000001090C02000071
S31500003B20000001090D020000000001000003000072
S31500003B300004010401030000000401040203000064
S31500003B400000000003030000000401040403000059
S31500003B500004010405030000000C01040603000034
S31500003B600404000007030000000000000803000032
S31500003B700404000009030000000000000A0300001E
S31500003B80000000000B030000000000000C03000012
S31500003B90000401190D030000000401190E030000C2
S31500003BA0000401190F03000000400000000400009B
S31500003BB000000110010400000000011002040000D2
S31500003BC000040117030400000004011704040000A8
S31500003BD0000C011705040000000C01170604000084
S31500003BE000000113070400000000010C0804000097
S31500003BF00000010C09040000000401040A0400008E
S31500003C00000401040B040000000C01040C04000075
S31500003C10040400000D0400000000010C0E04000066
S31500003C200000010C0F040000000C0111000500004B
S31500003C30000C011101050000000C01110205000035
S31500003C40000C011103050000000C01110405000021
S31500003C50000C01110505000000000000060500002B
S31500003C600000000007050000040400000006000034
S31500003C70040400000106000004040000020600001F
S31500003C80000000000306000000000000040600001B
S31500003C9000000000050600000004011906060000E9
S31500003CA000040119070600000000000008060000D5
S31500003CB0000000000D060000000000000E060000D7
S31500003CC0000401190F060000000C01170007000090
S31500003CD0000C011701070000000C01170207000085
S31500003CE0000C011703070000000C01170407000071
S31500003CF0000C011705070000000401050607000077
S31500003D000004010507070000040400000008000085
S31500003D100404000001080000000401190208000064
S31500003D20000401190308000000040119040800003A
S31500003D300404000006080000000C01190009000038
S31500003D400004011901090000000401190509000019
S31500003D500004011906090000000401190709000002
S31500003D60000401190809000000040119000A0000F6
S31500003D7000040119010A000000040119080A0000E4
S31500003D8000040119090A0000000401190A0A0000CA
S31500003D9000000114000B000000000114010B0000DC
S30900003DA00000000019
S31500003DA401000000E5060000C10600000000000056
S31500003DB400000000000000000000000000000000F9
S31500003DC400000000000000000000000000000000E9
S31500003DD400000000000000000000000000000000D9
S31500003DE400000000000000000000000000000000C9
S31500003DF400000000000000000000000000000000B9
S31500003E0400000000000000000000000000000000A8
S31100003E140000000000000000000000009C
S31540120050FFFFFFFFFFFFFFFFFFFFFFFFFFFFFFFF58
S70500002FE5E6
